:107C000011241FBECFE5D8E0DEBFCDBF10E0A0E657
:107C1000B0E0ECE2FFE702C005900D92A036B1079C
:107C2000D9F710E0A0E6B0E001C01D92A23EB10776
:107C3000E1F70C943D3E0C941D3E08955D9BFECFF4
:107C40008CB908955F9BFECF8CB19927089581E48C
:107C50000E941E3E86E50E941E3E82E50E941E3E58
:107C600082E40E941E3E8FE40E941E3E8FE40E942A
:107C70001E3E84E50E941E3E0895CFE5D8E0DEBF9B
:107C8000CDBFCC24DD249924B898C09A90BC80E163
:107C900089B988E18AB986E880BDE6015F9B03C0A7
:107CA0008CB1833581F0CE012196845F914030F014
:107CB000C098E0916000F0916100099580E49CE932
:107CC0000197F1F7EBCF0E94273E0E94223E082F3A
:107CD000813611F489E527C1813461F40E94223E86
:107CE000C82EDD24DC2CCC240E94223E9927C82AF1
:107CF000D92AE4C0823641F489E50E941E3E80E024
:107D00000E941E3E80E80FC1823409F06CC00E94C0
:107D1000223E0E94223EF82E0E94223E082FB2E60A
:107D2000AB2EB0E0BB2E10E0E5010894A11CB11C05
:107D30001F1518F40E94223E01C08FEF88831F5F39
:107D400017FFF2CF32E7931609F0C7C0063409F0E7
:107D500033C0CF2DA60166277727440F551F661F16
:107D6000771F6A017B01A2E6B0E011E08D919927AF
:107D70002D913327322F2227822B932B0C01FA01CE
:107D800010935700E89511244E5F5F4F6F4F7F4F60
:107D9000C25061F785E0F60180935700E89507B679
:107DA00000FCFDCF81E180935700E89576956795BB
:107DB000579547956A0182C0053409F07FC0960146
:107DC0004F2DE2E6F0E02EBB832F99278FBB8191E8
:107DD0008DBB2F5F3F4FE29AE19AE199FECF415070
:107DE00091F769016BC0873609F03BC00E94223EC3
:107DF0000E94223EC82F0E94223E8634F9F4EE24CF
:107E0000FF24CC0CDD1CEE1CFF1CF6010591149127
:107E1000802F0E941E3E812F99270E941E3E82E0E5
:107E200090E0A0E0B0E0C80ED91EEA1EFB1EC250D2
:107E300061F7F694E794D794C79447CF853409F057
:107E400044CF7601EEBA8F2D99278FBBE09A089424
:107E5000E11CF11C8DB30E941E3EC15099F76701D1
:107E600034CF853601F592E7991641F580E090E030
:107E7000A0E0B0E023E0FC0120935700E89507B6AE
:107E800000FCFDCF80589F4FAF4FBF4F8F3F3BE768
:107E9000930730E0A30730E0B30768F381E18093F4
:107EA0005700E8950BC0853459F488E190E028E04C
:107EB0000FB6F894A89581BD0FBE21BD8DE033C0EB
:107EC0008035E1F38C34D1F3803711F483E52BC096
:107ED000843729F482E70E941E3E80E024C0885740
:107EE000823018F40E94223EE9CF043521F40E942A
:107EF000223E982EE3CF033509F4E5CE063529F46A
:107F000080E30E941E3E88E30EC0033741F482E006
:107F10000E941E3E85E90E941E3E8EE104C00B3188
:0C7F200009F4D3CE8FE30E941E3ECFCEAA
:0400000300007C007D
:00000001FF
