:10F8000011241FBECFEFD0E1DEBFCDBF11E0A0E0DD
:10F81000B1E0E6ECFCEF02C005900D92A030B1071C
:10F82000D9F712E0A0E0B1E001C01D92A030B1070D
:10F83000E1F70C94507C0C941D7C08958091C000DD
:10F8400085FFFCCF81E48093C6008091C00085FFD6
:10F85000FCCF86E58093C6008091C00085FFFCCF79
:10F8600082E58093C6008091C00085FFFCCF82E4D2
:10F870008093C6008091C00085FFFCCF8FE4809309
:10F88000C6008091C00085FFFCCF8FE48093C60046
:10F890008091C00085FFFCCF84E58093C600089569
:10F8A000CF92DF92EF92FF920F931F93CF93DF934C
:10F8B0002098289A1092C50081E28093C40082E0CB
:10F8C0008093C00088E18093C10086E88093C200E5
:10F8D000C0E0D0E08091C00087FF04C08091C600E6
:10F8E000833571F031E0C43FD30720F02898E0E081
:10F8F000F0E00995219680E49CE90197F1F7EACFC1
:10F900000E941E7CC0E0D0E0CC248091C00087FF24
:10F91000FCCF8091C600982F813631F48091C000D1
:10F9200085FFFCCF89E5CCC18134C9F48091C0004A
:10F9300087FFFCCF8091C600482F55278091C000DB
:10F9400087FFFCCF8091C600282F33278091C0000D
:10F9500085FFFCCFD42FCC27C22BD32B7DC1823681
:10F9600099F48091C00085FFFCCF89E58093C600A3
:10F970008091C00085FFFCCF81E08093C60080911C
:10F98000C00085FFFCCF48C1823409F08FC0809150
:10F99000C00087FFFCCF8091C6009927382F22270F
:10F9A0008091C00087FFFCCF8091C600A82FBB27A5
:10F9B000A22BB32B8091C00087FFFCCF8091C600A3
:10F9C000482F552720E030E0E0E0F1E02A173B0720
:10F9D00010F08FEF06C08091C00087FFFCCF8091B0
:10F9E000C60080832F5F3F4F81E02030380711F041
:10F9F0003196ECCF34E7C31609F053C0463409F012
:10FA000034C0AE0166277727440F551F661F771F46
:10FA10007A018B01C0E0D1E0F1E0DF2E28813327AD
:10FA200089819927982F8827282B392B229609011D
:10FA3000FA01D0925700E89511244E5F5F4F6F4F47
:10FA40007F4F129759F785E0F70180935700E895AB
:10FA500007B600FCFDCF81E180935700E8957695CD
:10FA6000679557954795EA0117C04534A9F49E015B
:10FA7000AD01E0E0F1E021BD832F992782BD8191A6
:10FA800080BD2F5F3F4FFA9AF99AF999FECF415006
:10FA9000504089F7CA0FDB1F8091C00085FFFCCF63
:10FAA000DBC08091C00085FFFCCFB6C0873609F06F
:10FAB00058C08091C00087FFFCCF8091C600992775
:10FAC000382F22278091C00087FFFCCF8091C6008D
:10FAD000A82FBB27A22BB32B8091C00087FFFCCFA0
:10FAE0008091C600863421F59E0144275527220FB8
:10FAF000331F441F551FF901659174918091C00017
:10FB000085FFFCCF6093C600672F77278091C000E8
:10FB100085FFFCCF6093C6002E5F3F4F4F4F5F4F76
:10FB2000129749F75695479537952795E901EDCEF8
:10FB3000853409F0EACE9E01AD0121BD832F9927BE
:10FB400082BDF89A2F5F3F4F90B58091C00085FF2E
:10FB5000FCCF9093C6004150504079F7CA0FDB1F8D
:10FB6000D4CE853621F584E7C816E1F480E090E034
:10FB7000A0E0B0E023E0FC0120935700E89507B631
:10FB800000FCFDCF80509F4FAF4FBF4F803038EF0C
:10FB9000930730E0A30730E0B30769F781E1809372
:10FBA0005700E8958091C00085FFFCCF55C0853493
:10FBB00081F488E190E028E00FB6F894A89580934E
:10FBC00060000FBE209360008091C00085FFFCCFD5
:10FBD00043C0803529F48091C00085FFFCCF3CC034
:10FBE0008C3429F48091C00085FFFCCF35C080376C
:10FBF00031F48091C00085FFFCCF83E561C084377C
:10FC000071F48091C00085FFFCCF84E78093C6002B
:10FC10008091C00085FFFCCF1092C60076CE885739
:10FC2000823058F48091C00087FFFCCF8091C600DD
:10FC30008091C00085FFFCCF0FC0943579F480918E
:10FC4000C00087FFFCCF8091C600282F332780910A
:10FC5000C00085FFFCCFC22E8DE032C0933519F471
:10FC60000E941E7C52CE963569F48091C00085FFBB
:10FC7000FCCF80E38093C6008091C00085FFFCCF5D
:10FC800088E31EC09337A1F48091C00085FFFCCFAC
:10FC900089E08093C6008091C00085FFFCCF86E993
:10FCA0008093C6008091C00085FFFCCF8EE108C024
:10FCB0009B3109F42ACE8091C00085FFFCCF8FE3F1
:06FCC0008093C60022CE75
:040000030000F80001
:00000001FF
